{
  "contractName": "CrowdSource",
  "abi": [
    {
      "inputs": [],
      "payable": false,
      "stateMutability": "nonpayable",
      "type": "constructor"
    },
    {
      "anonymous": false,
      "inputs": [
        {
          "indexed": false,
          "internalType": "uint256",
          "name": "campId",
          "type": "uint256"
        },
        {
          "indexed": false,
          "internalType": "string",
          "name": "campName",
          "type": "string"
        },
        {
          "indexed": false,
          "internalType": "uint256",
          "name": "totalAmount",
          "type": "uint256"
        },
        {
          "indexed": false,
          "internalType": "uint256",
          "name": "currentAmount",
          "type": "uint256"
        },
        {
          "indexed": false,
          "internalType": "bool",
          "name": "target",
          "type": "bool"
        },
        {
          "indexed": false,
          "internalType": "bool",
          "name": "completed",
          "type": "bool"
        }
      ],
      "name": "campaignCreated",
      "type": "event"
    },
    {
      "anonymous": false,
      "inputs": [
        {
          "indexed": false,
          "internalType": "uint256",
          "name": "donationId",
          "type": "uint256"
        },
        {
          "indexed": false,
          "internalType": "uint256",
          "name": "amount",
          "type": "uint256"
        },
        {
          "indexed": false,
          "internalType": "uint256",
          "name": "campId",
          "type": "uint256"
        },
        {
          "indexed": false,
          "internalType": "string",
          "name": "sender",
          "type": "string"
        },
        {
          "indexed": false,
          "internalType": "string",
          "name": "recipient",
          "type": "string"
        },
        {
          "indexed": false,
          "internalType": "string",
          "name": "from",
          "type": "string"
        },
        {
          "indexed": false,
          "internalType": "string",
          "name": "to",
          "type": "string"
        }
      ],
      "name": "transactionDone",
      "type": "event"
    },
    {
      "constant": true,
      "inputs": [],
      "name": "CampCount",
      "outputs": [
        {
          "internalType": "uint256",
          "name": "",
          "type": "uint256"
        }
      ],
      "payable": false,
      "stateMutability": "view",
      "type": "function"
    },
    {
      "constant": true,
      "inputs": [],
      "name": "adminBalance",
      "outputs": [
        {
          "internalType": "uint256",
          "name": "",
          "type": "uint256"
        }
      ],
      "payable": false,
      "stateMutability": "view",
      "type": "function"
    },
    {
      "constant": true,
      "inputs": [
        {
          "internalType": "uint256",
          "name": "",
          "type": "uint256"
        }
      ],
      "name": "campaigns",
      "outputs": [
        {
          "internalType": "uint256",
          "name": "campId",
          "type": "uint256"
        },
        {
          "internalType": "string",
          "name": "campName",
          "type": "string"
        },
        {
          "internalType": "uint256",
          "name": "totalAmount",
          "type": "uint256"
        },
        {
          "internalType": "uint256",
          "name": "currentAmount",
          "type": "uint256"
        },
        {
          "internalType": "bool",
          "name": "target",
          "type": "bool"
        },
        {
          "internalType": "bool",
          "name": "completed",
          "type": "bool"
        }
      ],
      "payable": false,
      "stateMutability": "view",
      "type": "function"
    },
    {
      "constant": true,
      "inputs": [],
      "name": "count",
      "outputs": [
        {
          "internalType": "uint256",
          "name": "",
          "type": "uint256"
        }
      ],
      "payable": false,
      "stateMutability": "view",
      "type": "function"
    },
    {
      "constant": true,
      "inputs": [
        {
          "internalType": "uint256",
          "name": "",
          "type": "uint256"
        }
      ],
      "name": "donations",
      "outputs": [
        {
          "internalType": "uint256",
          "name": "donationId",
          "type": "uint256"
        },
        {
          "internalType": "uint256",
          "name": "amount",
          "type": "uint256"
        },
        {
          "internalType": "uint256",
          "name": "campId",
          "type": "uint256"
        },
        {
          "internalType": "string",
          "name": "sender",
          "type": "string"
        },
        {
          "internalType": "string",
          "name": "recipient",
          "type": "string"
        },
        {
          "internalType": "string",
          "name": "from",
          "type": "string"
        },
        {
          "internalType": "string",
          "name": "to",
          "type": "string"
        }
      ],
      "payable": false,
      "stateMutability": "view",
      "type": "function"
    },
    {
      "constant": true,
      "inputs": [],
      "name": "owner",
      "outputs": [
        {
          "internalType": "address",
          "name": "",
          "type": "address"
        }
      ],
      "payable": false,
      "stateMutability": "view",
      "type": "function"
    },
    {
      "constant": false,
      "inputs": [
        {
          "internalType": "uint256",
          "name": "_amount",
          "type": "uint256"
        },
        {
          "internalType": "uint256",
          "name": "_campId",
          "type": "uint256"
        },
        {
          "internalType": "string",
          "name": "_sender",
          "type": "string"
        },
        {
          "internalType": "string",
          "name": "_recipient",
          "type": "string"
        },
        {
          "internalType": "string",
          "name": "_from",
          "type": "string"
        },
        {
          "internalType": "string",
          "name": "_to",
          "type": "string"
        }
      ],
      "name": "setTransaction",
      "outputs": [],
      "payable": false,
      "stateMutability": "nonpayable",
      "type": "function"
    },
    {
      "constant": false,
      "inputs": [
        {
          "internalType": "string",
          "name": "_campName",
          "type": "string"
        },
        {
          "internalType": "uint256",
          "name": "_totalAmount",
          "type": "uint256"
        }
      ],
      "name": "setCampaign",
      "outputs": [],
      "payable": false,
      "stateMutability": "nonpayable",
      "type": "function"
    }
  ],
  "bytecode": "0x608060405260008055600060015560006002556040518060400160405280600e81526020017f787878787878787878784079626c000000000000000000000000000000000000815250600490805190602001906200005f929190620000b5565b503480156200006d57600080fd5b5033600360006101000a81548173ffffffffffffffffffffffffffffffffffffffff021916908373ffffffffffffffffffffffffffffffffffffffff16021790555062000164565b828054600181600116156101000203166002900490600052602060002090601f016020900481019282601f10620000f857805160ff191683800117855562000129565b8280016001018555821562000129579182015b82811115620001285782518255916020019190600101906200010b565b5b5090506200013891906200013c565b5090565b6200016191905b808211156200015d57600081600090555060010162000143565b5090565b90565b61171b80620001746000396000f3fe608060405234801561001057600080fd5b50600436106100885760003560e01c80639858befb1161005b5780639858befb146101e5578063ea56bf0c14610203578063ecb52fda14610497578063f8626af81461055c57610088565b806306661abd1461008d578063141961bc146100ab5780637695f3241461017d5780638da5cb5b1461019b575b600080fd5b61009561075c565b6040518082815260200191505060405180910390f35b6100d7600480360360208110156100c157600080fd5b8101908080359060200190929190505050610762565b60405180878152602001806020018681526020018581526020018415151515815260200183151515158152602001828103825287818151815260200191508051906020019080838360005b8381101561013d578082015181840152602081019050610122565b50505050905090810190601f16801561016a5780820380516001836020036101000a031916815260200191505b5097505050505050505060405180910390f35b610185610850565b6040518082815260200191505060405180910390f35b6101a3610856565b604051808273ffffffffffffffffffffffffffffffffffffffff1673ffffffffffffffffffffffffffffffffffffffff16815260200191505060405180910390f35b6101ed61087c565b6040518082815260200191505060405180910390f35b610495600480360360c081101561021957600080fd5b8101908080359060200190929190803590602001909291908035906020019064010000000081111561024a57600080fd5b82018360208201111561025c57600080fd5b8035906020019184600183028401116401000000008311171561027e57600080fd5b91908080601f016020809104026020016040519081016040528093929190818152602001838380828437600081840152601f19601f820116905080830192505050505050509192919290803590602001906401000000008111156102e157600080fd5b8201836020820111156102f357600080fd5b8035906020019184600183028401116401000000008311171561031557600080fd5b91908080601f016020809104026020016040519081016040528093929190818152602001838380828437600081840152601f19601f8201169050808301925050505050505091929192908035906020019064010000000081111561037857600080fd5b82018360208201111561038a57600080fd5b803590602001918460018302840111640100000000831117156103ac57600080fd5b91908080601f016020809104026020016040519081016040528093929190818152602001838380828437600081840152601f19601f8201169050808301925050505050505091929192908035906020019064010000000081111561040f57600080fd5b82018360208201111561042157600080fd5b8035906020019184600183028401116401000000008311171561044357600080fd5b91908080601f016020809104026020016040519081016040528093929190818152602001838380828437600081840152601f19601f820116905080830192505050505050509192919290505050610882565b005b61055a600480360360408110156104ad57600080fd5b81019080803590602001906401000000008111156104ca57600080fd5b8201836020820111156104dc57600080fd5b803590602001918460018302840111640100000000831117156104fe57600080fd5b91908080601f016020809104026020016040519081016040528093929190818152602001838380828437600081840152601f19601f8201169050808301925050505050505091929192908035906020019092919050505061119c565b005b6105886004803603602081101561057257600080fd5b810190808035906020019092919050505061139f565b6040518088815260200187815260200186815260200180602001806020018060200180602001858103855289818151815260200191508051906020019080838360005b838110156105e65780820151818401526020810190506105cb565b50505050905090810190601f1680156106135780820380516001836020036101000a031916815260200191505b50858103845288818151815260200191508051906020019080838360005b8381101561064c578082015181840152602081019050610631565b50505050905090810190601f1680156106795780820380516001836020036101000a031916815260200191505b50858103835287818151815260200191508051906020019080838360005b838110156106b2578082015181840152602081019050610697565b50505050905090810190601f1680156106df5780820380516001836020036101000a031916815260200191505b50858103825286818151815260200191508051906020019080838360005b838110156107185780820151818401526020810190506106fd565b50505050905090810190601f1680156107455780820380516001836020036101000a031916815260200191505b509b50505050505050505050505060405180910390f35b60015481565b6006602052806000526040600020600091509050806000015490806001018054600181600116156101000203166002900480601f0160208091040260200160405190810160405280929190818152602001828054600181600116156101000203166002900480156108145780601f106107e957610100808354040283529160200191610814565b820191906000526020600020905b8154815290600101906020018083116107f757829003601f168201915b5050505050908060020154908060030154908060040160009054906101000a900460ff16908060040160019054906101000a900460ff16905086565b60025481565b600360009054906101000a900473ffffffffffffffffffffffffffffffffffffffff1681565b60005481565b6001806000828254019250508190555060003390508073ffffffffffffffffffffffffffffffffffffffff16600360009054906101000a900473ffffffffffffffffffffffffffffffffffffffff1673ffffffffffffffffffffffffffffffffffffffff1614801561091b5750600015156006600088815260200190815260200160002060040160019054906101000a900460ff161515145b15610d1f5760006006600088815260200190815260200160002060030154905087811461094757600080fd5b6040518060e00160405280600154815260200182815260200188815260200187815260200186815260200160048054600181600116156101000203166002900480601f016020809104026020016040519081016040528092919081815260200182805460018160011615610100020316600290048015610a085780601f106109dd57610100808354040283529160200191610a08565b820191906000526020600020905b8154815290600101906020018083116109eb57829003601f168201915b50505050508152602001848152506005600060015481526020019081526020016000206000820151816000015560208201518160010155604082015181600201556060820151816003019080519060200190610a65929190611641565b506080820151816004019080519060200190610a82929190611641565b5060a0820151816005019080519060200190610a9f929190611641565b5060c0820151816006019080519060200190610abc929190611641565b5090505087600080828254039250508190555060016006600089815260200190815260200160002060040160016101000a81548160ff0219169083151502179055507f64f7e07d0077fab43d6b2c539e56ffde5a6a9383babd8e0c287dd2a9c951e791600154898989896004896040518088815260200187815260200186815260200180602001806020018060200180602001858103855289818151815260200191508051906020019080838360005b83811015610b87578082015181840152602081019050610b6c565b50505050905090810190601f168015610bb45780820380516001836020036101000a031916815260200191505b50858103845288818151815260200191508051906020019080838360005b83811015610bed578082015181840152602081019050610bd2565b50505050905090810190601f168015610c1a5780820380516001836020036101000a031916815260200191505b50858103835287818154600181600116156101000203166002900481526020019150805460018160011615610100020316600290048015610c9c5780601f10610c7157610100808354040283529160200191610c9c565b820191906000526020600020905b815481529060010190602001808311610c7f57829003601f168201915b5050858103825286818151815260200191508051906020019080838360005b83811015610cd6578082015181840152602081019050610cbb565b50505050905090810190601f168015610d035780820380516001836020036101000a031916815260200191505b509b50505050505050505050505060405180910390a150611193565b60008711610d2c57600080fd5b6006600087815260200190815260200160002060030154600660008881526020019081526020016000206002015403871115610d6757600080fd5b6040518060e00160405280600154815260200188815260200187815260200186815260200185815260200184815260200160048054600181600116156101000203166002900480601f016020809104026020016040519081016040528092919081815260200182805460018160011615610100020316600290048015610e2e5780601f10610e0357610100808354040283529160200191610e2e565b820191906000526020600020905b815481529060010190602001808311610e1157829003601f168201915b50505050508152506005600060015481526020019081526020016000206000820151816000015560208201518160010155604082015181600201556060820151816003019080519060200190610e85929190611641565b506080820151816004019080519060200190610ea2929190611641565b5060a0820151816005019080519060200190610ebf929190611641565b5060c0820151816006019080519060200190610edc929190611641565b50905050866000808282540192505081905550866006600088815260200190815260200160002060030160008282540192505081905550600660008781526020019081526020016000206002015460066000888152602001908152602001600020600301541415610f775760016006600088815260200190815260200160002060040160006101000a81548160ff0219169083151502179055505b7f64f7e07d0077fab43d6b2c539e56ffde5a6a9383babd8e0c287dd2a9c951e791600154888888888860046040518088815260200187815260200186815260200180602001806020018060200180602001858103855289818151815260200191508051906020019080838360005b83811015611000578082015181840152602081019050610fe5565b50505050905090810190601f16801561102d5780820380516001836020036101000a031916815260200191505b50858103845288818151815260200191508051906020019080838360005b8381101561106657808201518184015260208101905061104b565b50505050905090810190601f1680156110935780820380516001836020036101000a031916815260200191505b50858103835287818151815260200191508051906020019080838360005b838110156110cc5780820151818401526020810190506110b1565b50505050905090810190601f1680156110f95780820380516001836020036101000a031916815260200191505b5085810382528681815460018160011615610100020316600290048152602001915080546001816001161561010002031660029004801561117b5780601f106111505761010080835404028352916020019161117b565b820191906000526020600020905b81548152906001019060200180831161115e57829003601f168201915b50509b50505050505050505050505060405180910390a15b50505050505050565b600360009054906101000a900473ffffffffffffffffffffffffffffffffffffffff1673ffffffffffffffffffffffffffffffffffffffff163373ffffffffffffffffffffffffffffffffffffffff16146111f657600080fd5b6001600254016002819055506040518060c0016040528060025481526020018381526020018281526020016000815260200160001515815260200160001515815250600660006002548152602001908152602001600020600082015181600001556020820151816001019080519060200190611273929190611641565b50604082015181600201556060820151816003015560808201518160040160006101000a81548160ff02191690831515021790555060a08201518160040160016101000a81548160ff0219169083151502179055509050507f44a704a4b7d0f0a6c7e5b226902f30887835575ccbb9ce7ab1db54f40cadf24a6002548383600080600060405180878152602001806020018681526020018581526020018415151515815260200183151515158152602001828103825287818151815260200191508051906020019080838360005b8381101561135c578082015181840152602081019050611341565b50505050905090810190601f1680156113895780820380516001836020036101000a031916815260200191505b5097505050505050505060405180910390a15050565b6005602052806000526040600020600091509050806000015490806001015490806002015490806003018054600181600116156101000203166002900480601f01602080910402602001604051908101604052809291908181526020018280546001816001161561010002031660029004801561145d5780601f106114325761010080835404028352916020019161145d565b820191906000526020600020905b81548152906001019060200180831161144057829003601f168201915b505050505090806004018054600181600116156101000203166002900480601f0160208091040260200160405190810160405280929190818152602001828054600181600116156101000203166002900480156114fb5780601f106114d0576101008083540402835291602001916114fb565b820191906000526020600020905b8154815290600101906020018083116114de57829003601f168201915b505050505090806005018054600181600116156101000203166002900480601f0160208091040260200160405190810160405280929190818152602001828054600181600116156101000203166002900480156115995780601f1061156e57610100808354040283529160200191611599565b820191906000526020600020905b81548152906001019060200180831161157c57829003601f168201915b505050505090806006018054600181600116156101000203166002900480601f0160208091040260200160405190810160405280929190818152602001828054600181600116156101000203166002900480156116375780601f1061160c57610100808354040283529160200191611637565b820191906000526020600020905b81548152906001019060200180831161161a57829003601f168201915b5050505050905087565b828054600181600116156101000203166002900490600052602060002090601f016020900481019282601f1061168257805160ff19168380011785556116b0565b828001600101855582156116b0579182015b828111156116af578251825591602001919060010190611694565b5b5090506116bd91906116c1565b5090565b6116e391905b808211156116df5760008160009055506001016116c7565b5090565b9056fea265627a7a72315820ba73d3a5133b7a49ad3701dab9ec730bbc0224cb52e91de79835090eed05c2c464736f6c63430005100032",
  "source": "// SPDX-License-Identifier: MIT\npragma solidity >=0.4.21 <0.9.0;\n\ncontract CrowdSource{   \n  uint public adminBalance=0;\n  uint public count=0;\n  uint public CampCount=0;\n  address public owner;\n  string adminCredential = \"xxxxxxxxxx@ybl\";\n  constructor()public{\n    owner=msg.sender; \n  }\n\n  mapping(uint => Donation) public donations;\n  struct Donation{\n    uint donationId;\n    uint amount;\n    uint campId;\n    string sender;        \n    string recipient;    \n    string from;\n    string to;\n  }\n  \n  mapping(uint => Campaign) public campaigns;\n  struct Campaign{\n    uint campId;\n    string campName;\n    uint totalAmount;\n    uint currentAmount;\n    bool target;\n    bool completed;\n  }\n\n //[\"kerela\",\"Mum\",\"kar\"]\n //1 2 3\n  event campaignCreated(\n    uint campId,\n    string campName,\n    uint totalAmount,\n    uint currentAmount,\n    bool target,\n    bool completed\n  );\n\n  event transactionDone(\n    uint donationId,\n    uint amount,\n    uint campId,\n    string sender,        \n    string recipient ,\n    string from,\n    string to\n    );\n\n  function setTransaction(uint _amount, uint _campId, string memory _sender, string memory _recipient, string memory _from, string memory _to ) public { \n  count+=1;\n  address _senderId = msg.sender;\n  if((owner == _senderId) && (campaigns[_campId].completed==false)){\n    //A -> C\n    uint amnt=campaigns[_campId].currentAmount;\n    require(amnt == _amount);\n    donations[count]=Donation(count, amnt, _campId, _sender, _recipient, adminCredential , _to);\n    adminBalance -= _amount;\n    campaigns[_campId].completed=true;\n    emit transactionDone(count, _amount, _campId , _sender, _recipient,  adminCredential , _to);\n }else{\n   //U -> A\n    require(_amount>0);\n    require(_amount<=(campaigns[_campId].totalAmount-campaigns[_campId].currentAmount));\n    donations[count]=Donation(count, _amount, _campId , _sender, _recipient, _from, adminCredential); \n    adminBalance += _amount;\n    campaigns[_campId].currentAmount+=_amount;\n\n    if(campaigns[_campId].currentAmount == campaigns[_campId].totalAmount){\n      campaigns[_campId].target = true;\n    }\n    emit transactionDone(count, _amount, _campId , _sender, _recipient, _from, adminCredential);\n    }\n  }\n\n\n  function setCampaign(string memory _campName, uint _totalAmount) public {\n      require(msg.sender == owner);\n      CampCount = CampCount + 1;\n      campaigns[CampCount]=Campaign(CampCount, _campName, _totalAmount, 0, false, false);\n      emit campaignCreated(CampCount, _campName, _totalAmount, 0, false, false);\n  }\n  \n}\n\n\n\n//inst =await CrowdSource.deployed()\n//await inst.setCampaign(\"kerala\",50000)\n//await inst.setTransaction(40000,1,\"nabhan\",\"derryl\",\"xyyUPI\",\"sdfkf\",{from:'0x9eCc133D59903b605752f31B9e21d13DDC1C9168'})\n// await inst.setTransaction(50000,1,\"derryl\",\"keralaCamp\",\"xxxyUPI\",\"sdfkf@UPI\")\n//await inst.campaigns(1)",
  "sourcePath": "C:\\Users\\Derryl Ashwin\\Desktop\\project 1\\client\\contracts\\Crowdsource.sol",
  "compiler": {
    "name": "solc",
    "version": "0.5.16+commit.9c3226ce.Emscripten.clang"
  },
  "schemaVersion": "3.0.23",
  "updatedAt": "2021-06-21T14:29:48.511Z",
  "networkType": "ethereum",
  "devdoc": {
    "methods": {}
  },
  "userdoc": {
    "methods": {}
  }
}