{
  "contractName": "CrowdSource",
  "abi": [
    {
      "inputs": [],
      "payable": false,
      "stateMutability": "nonpayable",
      "type": "constructor"
    },
    {
      "constant": true,
      "inputs": [],
      "name": "CampCount",
      "outputs": [
        {
          "internalType": "uint256",
          "name": "",
          "type": "uint256"
        }
      ],
      "payable": false,
      "stateMutability": "view",
      "type": "function"
    },
    {
      "constant": true,
      "inputs": [],
      "name": "adminBalance",
      "outputs": [
        {
          "internalType": "uint256",
          "name": "",
          "type": "uint256"
        }
      ],
      "payable": false,
      "stateMutability": "view",
      "type": "function"
    },
    {
      "constant": true,
      "inputs": [
        {
          "internalType": "uint256",
          "name": "",
          "type": "uint256"
        }
      ],
      "name": "campaigns",
      "outputs": [
        {
          "internalType": "uint256",
          "name": "campId",
          "type": "uint256"
        },
        {
          "internalType": "string",
          "name": "campName",
          "type": "string"
        },
        {
          "internalType": "uint256",
          "name": "totalAmount",
          "type": "uint256"
        },
        {
          "internalType": "uint256",
          "name": "currentAmount",
          "type": "uint256"
        },
        {
          "internalType": "bool",
          "name": "target",
          "type": "bool"
        }
      ],
      "payable": false,
      "stateMutability": "view",
      "type": "function"
    },
    {
      "constant": true,
      "inputs": [],
      "name": "count",
      "outputs": [
        {
          "internalType": "uint256",
          "name": "",
          "type": "uint256"
        }
      ],
      "payable": false,
      "stateMutability": "view",
      "type": "function"
    },
    {
      "constant": true,
      "inputs": [
        {
          "internalType": "uint256",
          "name": "",
          "type": "uint256"
        }
      ],
      "name": "donations",
      "outputs": [
        {
          "internalType": "uint256",
          "name": "donationId",
          "type": "uint256"
        },
        {
          "internalType": "uint256",
          "name": "amount",
          "type": "uint256"
        },
        {
          "internalType": "uint256",
          "name": "campId",
          "type": "uint256"
        },
        {
          "internalType": "string",
          "name": "sender",
          "type": "string"
        },
        {
          "internalType": "string",
          "name": "recipient",
          "type": "string"
        }
      ],
      "payable": false,
      "stateMutability": "view",
      "type": "function"
    },
    {
      "constant": true,
      "inputs": [],
      "name": "owner",
      "outputs": [
        {
          "internalType": "address",
          "name": "",
          "type": "address"
        }
      ],
      "payable": false,
      "stateMutability": "view",
      "type": "function"
    },
    {
      "constant": false,
      "inputs": [
        {
          "internalType": "uint256",
          "name": "_amount",
          "type": "uint256"
        },
        {
          "internalType": "uint256",
          "name": "_campId",
          "type": "uint256"
        },
        {
          "internalType": "string",
          "name": "_sender",
          "type": "string"
        },
        {
          "internalType": "string",
          "name": "_recipient",
          "type": "string"
        }
      ],
      "name": "setTransaction",
      "outputs": [],
      "payable": false,
      "stateMutability": "nonpayable",
      "type": "function"
    },
    {
      "constant": false,
      "inputs": [
        {
          "internalType": "string",
          "name": "_campName",
          "type": "string"
        },
        {
          "internalType": "uint256",
          "name": "_totalAmount",
          "type": "uint256"
        }
      ],
      "name": "setCampaign",
      "outputs": [],
      "payable": false,
      "stateMutability": "nonpayable",
      "type": "function"
    }
  ],
  "bytecode": "0x6080604052600080556000600155600060025534801561001e57600080fd5b5033600360006101000a81548173ffffffffffffffffffffffffffffffffffffffff021916908373ffffffffffffffffffffffffffffffffffffffff160217905550610a978061006f6000396000f3fe608060405234801561001057600080fd5b50600436106100885760003560e01c80638da5cb5b1161005b5780638da5cb5b146102f65780639858befb14610340578063ecb52fda1461035e578063f8626af81461042357610088565b806306661abd1461008d578063141961bc146100ab5780636ebefb5d146101725780637695f324146102d8575b600080fd5b61009561054b565b6040518082815260200191505060405180910390f35b6100d7600480360360208110156100c157600080fd5b8101908080359060200190929190505050610551565b604051808681526020018060200185815260200184815260200183151515158152602001828103825286818151815260200191508051906020019080838360005b83811015610133578082015181840152602081019050610118565b50505050905090810190601f1680156101605780820380516001836020036101000a031916815260200191505b50965050505050505060405180910390f35b6102d66004803603608081101561018857600080fd5b810190808035906020019092919080359060200190929190803590602001906401000000008111156101b957600080fd5b8201836020820111156101cb57600080fd5b803590602001918460018302840111640100000000831117156101ed57600080fd5b91908080601f016020809104026020016040519081016040528093929190818152602001838380828437600081840152601f19601f8201169050808301925050505050505091929192908035906020019064010000000081111561025057600080fd5b82018360208201111561026257600080fd5b8035906020019184600183028401116401000000008311171561028457600080fd5b91908080601f016020809104026020016040519081016040528093929190818152602001838380828437600081840152601f19601f82011690508083019250505050505050919291929050505061062c565b005b6102e061071b565b6040518082815260200191505060405180910390f35b6102fe610721565b604051808273ffffffffffffffffffffffffffffffffffffffff1673ffffffffffffffffffffffffffffffffffffffff16815260200191505060405180910390f35b610348610747565b6040518082815260200191505060405180910390f35b6104216004803603604081101561037457600080fd5b810190808035906020019064010000000081111561039157600080fd5b8201836020820111156103a357600080fd5b803590602001918460018302840111640100000000831117156103c557600080fd5b91908080601f016020809104026020016040519081016040528093929190818152602001838380828437600081840152601f19601f8201169050808301925050505050505091929192908035906020019092919050505061074d565b005b61044f6004803603602081101561043957600080fd5b8101908080359060200190929190505050610857565b604051808681526020018581526020018481526020018060200180602001838103835285818151815260200191508051906020019080838360005b838110156104a557808201518184015260208101905061048a565b50505050905090810190601f1680156104d25780820380516001836020036101000a031916815260200191505b50838103825284818151815260200191508051906020019080838360005b8381101561050b5780820151818401526020810190506104f0565b50505050905090810190601f1680156105385780820380516001836020036101000a031916815260200191505b5097505050505050505060405180910390f35b60015481565b6005602052806000526040600020600091509050806000015490806001018054600181600116156101000203166002900480601f0160208091040260200160405190810160405280929190818152602001828054600181600116156101000203166002900480156106035780601f106105d857610100808354040283529160200191610603565b820191906000526020600020905b8154815290600101906020018083116105e657829003601f168201915b5050505050908060020154908060030154908060040160009054906101000a900460ff16905085565b600180600082825401925050819055506000841161064957600080fd5b6040518060a0016040528060015481526020018581526020018481526020018381526020018281525060046000600154815260200190815260200160002060008201518160000155602082015181600101556040820151816002015560608201518160030190805190602001906106c19291906109bd565b5060808201518160040190805190602001906106de9291906109bd565b5090505083600080828254019250508190555083600560008581526020019081526020016000206003016000828254019250508190555050505050565b60025481565b600360009054906101000a900473ffffffffffffffffffffffffffffffffffffffff1681565b60005481565b600360009054906101000a900473ffffffffffffffffffffffffffffffffffffffff1673ffffffffffffffffffffffffffffffffffffffff163373ffffffffffffffffffffffffffffffffffffffff16146107a757600080fd5b6001600254016002819055506040518060a001604052806002548152602001838152602001828152602001600081526020016000151581525060056000600254815260200190815260200160002060008201518160000155602082015181600101908051906020019061081b9291906109bd565b50604082015181600201556060820151816003015560808201518160040160006101000a81548160ff0219169083151502179055509050505050565b6004602052806000526040600020600091509050806000015490806001015490806002015490806003018054600181600116156101000203166002900480601f0160208091040260200160405190810160405280929190818152602001828054600181600116156101000203166002900480156109155780601f106108ea57610100808354040283529160200191610915565b820191906000526020600020905b8154815290600101906020018083116108f857829003601f168201915b505050505090806004018054600181600116156101000203166002900480601f0160208091040260200160405190810160405280929190818152602001828054600181600116156101000203166002900480156109b35780601f10610988576101008083540402835291602001916109b3565b820191906000526020600020905b81548152906001019060200180831161099657829003601f168201915b5050505050905085565b828054600181600116156101000203166002900490600052602060002090601f016020900481019282601f106109fe57805160ff1916838001178555610a2c565b82800160010185558215610a2c579182015b82811115610a2b578251825591602001919060010190610a10565b5b509050610a399190610a3d565b5090565b610a5f91905b80821115610a5b576000816000905550600101610a43565b5090565b9056fea265627a7a72315820b9dab3a13087cbe9f58d2a1787a380f1f07604d7092c2505ddad247a79a5e8e264736f6c63430005100032",
  "source": "// SPDX-License-Identifier: MIT\npragma solidity >=0.4.21 <0.9.0;\n\ncontract CrowdSource{   \n  uint public adminBalance=0;\n  uint public count=0;\n  uint public CampCount=0;\n  address public owner;\n\n  constructor()public{\n    owner=msg.sender; \n  }\n\n  mapping(uint => Donation) public donations;\n  struct Donation{\n    uint donationId;\n    uint amount;\n    uint campId;\n    string sender;        \n    string recipient;     \n  }\n  \n  mapping(uint => Campaign) public campaigns;\n  struct Campaign{\n    uint campId;\n    string campName;\n    uint totalAmount;\n    uint currentAmount;\n    bool target;\n  }\n\n //[\"kerela\",\"Mum\",\"kar\"]\n //1 2 3\n\n\n  function setTransaction(uint _amount, uint _campId, string memory _sender, string memory _recipient) public { \n    count+=1;\n\n  // if(msg.sender == owner){\n\n  //   require(adminBalance>=_amount);\n  //   donations[count]=Donation(count, _amount, _campId, _sender, _recipient);\n  //   //adminBalance -= _amount;\n\n  // }else{\n    //p->admin total donatn for the camp -> transfer should be done from admin\n    require(_amount>0);\n    donations[count]=Donation(count, _amount, _campId , _sender, _recipient); \n    adminBalance += _amount;\n    campaigns[_campId].currentAmount+=_amount;\n  //}\n  }\n\n\n  function setCampaign(string memory _campName, uint _totalAmount) public {\n      require(msg.sender == owner);\n      CampCount = CampCount + 1;\n      campaigns[CampCount]=Campaign(CampCount, _campName, _totalAmount, 0, false);\n  }\n  \n}",
  "sourcePath": "C:\\Users\\Derryl Ashwin\\Desktop\\project 1\\client\\contracts\\Crowdsource.sol",
  "compiler": {
    "name": "solc",
    "version": "0.5.16+commit.9c3226ce.Emscripten.clang"
  },
  "schemaVersion": "3.0.23",
  "updatedAt": "2021-06-19T14:54:23.059Z",
  "networkType": "ethereum",
  "devdoc": {
    "methods": {}
  },
  "userdoc": {
    "methods": {}
  }
}